{
  "contractName": "Evaluator",
  "abi": [
    {
      "inputs": [
        {
          "internalType": "contract ERC20TD",
          "name": "_TDAMM",
          "type": "address"
        },
        {
          "internalType": "contract ERC20",
          "name": "_dummyToken",
          "type": "address"
        },
        {
          "internalType": "contract IUniswapV2Factory",
          "name": "_uniswapV2Factory",
          "type": "address"
        },
        {
          "internalType": "address",
          "name": "_WETH",
          "type": "address"
        }
      ],
      "stateMutability": "nonpayable",
      "type": "constructor"
    },
    {
      "anonymous": false,
      "inputs": [
        {
          "indexed": false,
          "internalType": "address",
          "name": "erc20Address",
          "type": "address"
        },
        {
          "indexed": false,
          "internalType": "address",
          "name": "dummyTokenAddress",
          "type": "address"
        },
        {
          "indexed": false,
          "internalType": "address",
          "name": "uniFactoryAddress",
          "type": "address"
        },
        {
          "indexed": false,
          "internalType": "address",
          "name": "wethAddress",
          "type": "address"
        }
      ],
      "name": "constructedCorrectly",
      "type": "event"
    },
    {
      "anonymous": false,
      "inputs": [
        {
          "indexed": false,
          "internalType": "string",
          "name": "ticker",
          "type": "string"
        },
        {
          "indexed": false,
          "internalType": "uint256",
          "name": "supply",
          "type": "uint256"
        }
      ],
      "name": "newRandomTickerAndSupply",
      "type": "event"
    },
    {
      "stateMutability": "payable",
      "type": "fallback"
    },
    {
      "inputs": [],
      "name": "TDAMM",
      "outputs": [
        {
          "internalType": "contract ERC20TD",
          "name": "",
          "type": "address"
        }
      ],
      "stateMutability": "view",
      "type": "function"
    },
    {
      "inputs": [],
      "name": "WETH",
      "outputs": [
        {
          "internalType": "address",
          "name": "",
          "type": "address"
        }
      ],
      "stateMutability": "view",
      "type": "function"
    },
    {
      "inputs": [
        {
          "internalType": "address",
          "name": "",
          "type": "address"
        }
      ],
      "name": "assignedSupply",
      "outputs": [
        {
          "internalType": "uint256",
          "name": "",
          "type": "uint256"
        }
      ],
      "stateMutability": "view",
      "type": "function"
    },
    {
      "inputs": [
        {
          "internalType": "address",
          "name": "",
          "type": "address"
        }
      ],
      "name": "assignedTicker",
      "outputs": [
        {
          "internalType": "string",
          "name": "",
          "type": "string"
        }
      ],
      "stateMutability": "view",
      "type": "function"
    },
    {
      "inputs": [],
      "name": "dummyToken",
      "outputs": [
        {
          "internalType": "contract ERC20",
          "name": "",
          "type": "address"
        }
      ],
      "stateMutability": "view",
      "type": "function"
    },
    {
      "inputs": [
        {
          "internalType": "address",
          "name": "",
          "type": "address"
        },
        {
          "internalType": "uint256",
          "name": "",
          "type": "uint256"
        }
      ],
      "name": "exerciceProgression",
      "outputs": [
        {
          "internalType": "bool",
          "name": "",
          "type": "bool"
        }
      ],
      "stateMutability": "view",
      "type": "function"
    },
    {
      "inputs": [
        {
          "internalType": "address",
          "name": "",
          "type": "address"
        }
      ],
      "name": "hasBeenPaired",
      "outputs": [
        {
          "internalType": "bool",
          "name": "",
          "type": "bool"
        }
      ],
      "stateMutability": "view",
      "type": "function"
    },
    {
      "inputs": [],
      "name": "nextValueStoreRank",
      "outputs": [
        {
          "internalType": "uint256",
          "name": "",
          "type": "uint256"
        }
      ],
      "stateMutability": "view",
      "type": "function"
    },
    {
      "inputs": [
        {
          "internalType": "address",
          "name": "",
          "type": "address"
        }
      ],
      "name": "studentErc20",
      "outputs": [
        {
          "internalType": "contract IRichERC20",
          "name": "",
          "type": "address"
        }
      ],
      "stateMutability": "view",
      "type": "function"
    },
    {
      "inputs": [
        {
          "internalType": "address",
          "name": "",
          "type": "address"
        }
      ],
      "name": "studentExercice",
      "outputs": [
        {
          "internalType": "contract IExerciceSolution",
          "name": "",
          "type": "address"
        }
      ],
      "stateMutability": "view",
      "type": "function"
    },
    {
      "inputs": [
        {
          "internalType": "address",
          "name": "",
          "type": "address"
        }
      ],
      "name": "teachers",
      "outputs": [
        {
          "internalType": "bool",
          "name": "",
          "type": "bool"
        }
      ],
      "stateMutability": "view",
      "type": "function"
    },
    {
      "inputs": [],
      "name": "uniswapV2Factory",
      "outputs": [
        {
          "internalType": "contract IUniswapV2Factory",
          "name": "",
          "type": "address"
        }
      ],
      "stateMutability": "view",
      "type": "function"
    },
    {
      "stateMutability": "payable",
      "type": "receive"
    },
    {
      "inputs": [],
      "name": "ex1_showIHaveTokens",
      "outputs": [],
      "stateMutability": "nonpayable",
      "type": "function"
    },
    {
      "inputs": [],
      "name": "ex2_showIProvidedLiquidity",
      "outputs": [],
      "stateMutability": "nonpayable",
      "type": "function"
    },
    {
      "inputs": [],
      "name": "ex6a_getTickerAndSupply",
      "outputs": [],
      "stateMutability": "nonpayable",
      "type": "function"
    },
    {
      "inputs": [],
      "name": "ex6b_testErc20TickerAndSupply",
      "outputs": [],
      "stateMutability": "nonpayable",
      "type": "function"
    },
    {
      "inputs": [],
      "name": "ex7_tokenIsTradableOnUniswap",
      "outputs": [],
      "stateMutability": "nonpayable",
      "type": "function"
    },
    {
      "inputs": [],
      "name": "ex8_contractCanSwapVsEth",
      "outputs": [],
      "stateMutability": "nonpayable",
      "type": "function"
    },
    {
      "inputs": [],
      "name": "ex9_contractCanSwapVsDummyToken",
      "outputs": [],
      "stateMutability": "nonpayable",
      "type": "function"
    },
    {
      "inputs": [],
      "name": "ex10_contractCanProvideLiquidity",
      "outputs": [],
      "stateMutability": "nonpayable",
      "type": "function"
    },
    {
      "inputs": [],
      "name": "ex11_contractCanWithdrawLiquidity",
      "outputs": [],
      "stateMutability": "nonpayable",
      "type": "function"
    },
    {
      "inputs": [
        {
          "internalType": "contract IExerciceSolution",
          "name": "studentExercice_",
          "type": "address"
        }
      ],
      "name": "submitExercice",
      "outputs": [],
      "stateMutability": "nonpayable",
      "type": "function"
    },
    {
      "inputs": [
        {
          "internalType": "contract IRichERC20",
          "name": "studentErc20_",
          "type": "address"
        }
      ],
      "name": "submitErc20",
      "outputs": [],
      "stateMutability": "nonpayable",
      "type": "function"
    },
    {
      "inputs": [
        {
          "internalType": "bytes32",
          "name": "_bytes32",
          "type": "bytes32"
        }
      ],
      "name": "bytes32ToString",
      "outputs": [
        {
          "internalType": "string",
          "name": "",
          "type": "string"
        }
      ],
      "stateMutability": "pure",
      "type": "function"
    },
    {
      "inputs": [
        {
          "internalType": "address",
          "name": "studentAddres",
          "type": "address"
        }
      ],
      "name": "readTicker",
      "outputs": [
        {
          "internalType": "string",
          "name": "",
          "type": "string"
        }
      ],
      "stateMutability": "view",
      "type": "function"
    },
    {
      "inputs": [
        {
          "internalType": "address",
          "name": "studentAddres",
          "type": "address"
        }
      ],
      "name": "readSupply",
      "outputs": [
        {
          "internalType": "uint256",
          "name": "",
          "type": "uint256"
        }
      ],
      "stateMutability": "view",
      "type": "function"
    },
    {
      "inputs": [
        {
          "internalType": "uint256[20]",
          "name": "_randomSupplies",
          "type": "uint256[20]"
        },
        {
          "internalType": "string[20]",
          "name": "_randomTickers",
          "type": "string[20]"
        }
      ],
      "name": "setRandomTickersAndSupply",
      "outputs": [],
      "stateMutability": "nonpayable",
      "type": "function"
    }
  ],
  "bytecode": "0x60806040523480156200001157600080fd5b5060405162005dcc38038062005dcc833981810160405281019062000037919062000202565b83600160006101000a81548173ffffffffffffffffffffffffffffffffffffffff021916908373ffffffffffffffffffffffffffffffffffffffff16021790555082600260006101000a81548173ffffffffffffffffffffffffffffffffffffffff021916908373ffffffffffffffffffffffffffffffffffffffff16021790555081600360006101000a81548173ffffffffffffffffffffffffffffffffffffffff021916908373ffffffffffffffffffffffffffffffffffffffff16021790555080600460006101000a81548173ffffffffffffffffffffffffffffffffffffffff021916908373ffffffffffffffffffffffffffffffffffffffff1602179055507f82169bf8e2a940653a3005b8fbe3a01d8ab56fd5bbbcd0bf31ac67b29cee1f97600160009054906101000a900473ffffffffffffffffffffffffffffffffffffffff168484846040516200019494939291906200027f565b60405180910390a150505050620003a4565b600081519050620001b7816200033c565b92915050565b600081519050620001ce8162000356565b92915050565b600081519050620001e58162000370565b92915050565b600081519050620001fc816200038a565b92915050565b600080600080608085870312156200021957600080fd5b60006200022987828801620001bd565b94505060206200023c87828801620001d4565b93505060406200024f87828801620001eb565b92505060606200026287828801620001a6565b91505092959194509250565b6200027981620002cc565b82525050565b60006080820190506200029660008301876200026e565b620002a560208301866200026e565b620002b460408301856200026e565b620002c360608301846200026e565b95945050505050565b6000620002d9826200031c565b9050919050565b6000620002ed82620002cc565b9050919050565b60006200030182620002cc565b9050919050565b60006200031582620002cc565b9050919050565b600073ffffffffffffffffffffffffffffffffffffffff82169050919050565b6200034781620002cc565b81146200035357600080fd5b50565b6200036181620002e0565b81146200036d57600080fd5b50565b6200037b81620002f4565b81146200038757600080fd5b50565b620003958162000308565b8114620003a157600080fd5b50565b615a1880620003b46000396000f3fe60806040526004361061019f5760003560e01c80639b148f17116100ec578063cec7f2101161008a578063e22ebfd611610064578063e22ebfd61461055d578063e84092a91461059a578063f0a47f78146105b1578063f4fdbb88146105ee576101a6565b8063cec7f210146104cc578063d1a2e76e146104f7578063e22b5dcf14610520576101a6565b8063c7599393116100c6578063c759939314610470578063ca5cd0c214610487578063cc093e7a1461049e578063cd3560d7146104b5576101a6565b80639b148f17146103f15780639f91f51614610408578063ad5c464814610445576101a6565b806352954cf31161015957806367479ec51161013357806367479ec5146103235780637c83d61a1461034e5780637db60caf146103775780639201de55146103b4576101a6565b806352954cf3146102ca57806359d0f713146102e15780635d54c3701461030c576101a6565b8062a3491a146101a857806305b12022146101e55780630c58c95c146101fc5780632236d353146102395780632e64c5001461026257806339119dce1461029f576101a6565b366101a657005b005b3480156101b457600080fd5b506101cf60048036038101906101ca9190614a2d565b61062b565b6040516101dc919061543f565b60405180910390f35b3480156101f157600080fd5b506101fa6106db565b005b34801561020857600080fd5b50610223600480360381019061021e9190614a2d565b610b26565b60405161023091906153ee565b60405180910390f35b34801561024557600080fd5b50610260600480360381019061025b9190614b63565b610b59565b005b34801561026e57600080fd5b5061028960048036038101906102849190614a7f565b610c89565b604051610296919061539d565b60405180910390f35b3480156102ab57600080fd5b506102b4610cb8565b6040516102c19190615611565b60405180910390f35b3480156102d657600080fd5b506102df610cbe565b005b3480156102ed57600080fd5b506102f6610f0b565b6040516103039190615424565b60405180910390f35b34801561031857600080fd5b50610321610f31565b005b34801561032f57600080fd5b50610338611aac565b60405161034591906153d3565b60405180910390f35b34801561035a57600080fd5b5061037560048036038101906103709190614b8c565b611ad2565b005b34801561038357600080fd5b5061039e60048036038101906103999190614a2d565b611c02565b6040516103ab9190615611565b60405180910390f35b3480156103c057600080fd5b506103db60048036038101906103d69190614b3a565b611c1a565b6040516103e8919061543f565b60405180910390f35b3480156103fd57600080fd5b50610406611d8e565b005b34801561041457600080fd5b5061042f600480360381019061042a9190614a2d565b611fdf565b60405161043c9190615611565b60405180910390f35b34801561045157600080fd5b5061045a612028565b6040516104679190615271565b60405180910390f35b34801561047c57600080fd5b5061048561204e565b005b34801561049357600080fd5b5061049c612443565b005b3480156104aa57600080fd5b506104b3612a80565b005b3480156104c157600080fd5b506104ca61339a565b005b3480156104d857600080fd5b506104e1613c42565b6040516104ee91906153b8565b60405180910390f35b34801561050357600080fd5b5061051e60048036038101906105199190614abb565b613c68565b005b34801561052c57600080fd5b5061054760048036038101906105429190614a2d565b613dbd565b604051610554919061543f565b60405180910390f35b34801561056957600080fd5b50610584600480360381019061057f9190614a2d565b613e9e565b6040516105919190615409565b60405180910390f35b3480156105a657600080fd5b506105af613ed1565b005b3480156105bd57600080fd5b506105d860048036038101906105d39190614a2d565b61450e565b6040516105e5919061539d565b60405180910390f35b3480156105fa57600080fd5b5061061560048036038101906106109190614a2d565b61452e565b604051610622919061539d565b60405180910390f35b602e6020528060005260406000206000915090508054600181600116156101000203166002900480601f0160208091040260200160405190810160405280929190818152602001828054600181600116156101000203166002900480156106d35780601f106106a8576101008083540402835291602001916106d3565b820191906000526020600020905b8154815290600101906020018083116106b657829003601f168201915b505050505081565b600080600460009054906101000a900473ffffffffffffffffffffffffffffffffffffffff1673ffffffffffffffffffffffffffffffffffffffff16603160003373ffffffffffffffffffffffffffffffffffffffff1673ffffffffffffffffffffffffffffffffffffffff16815260200190815260200160002060009054906101000a900473ffffffffffffffffffffffffffffffffffffffff1673ffffffffffffffffffffffffffffffffffffffff161061081a57600460009054906101000a900473ffffffffffffffffffffffffffffffffffffffff16603160003373ffffffffffffffffffffffffffffffffffffffff1673ffffffffffffffffffffffffffffffffffffffff16815260200190815260200160002060009054906101000a900473ffffffffffffffffffffffffffffffffffffffff1661089e565b603160003373ffffffffffffffffffffffffffffffffffffffff1673ffffffffffffffffffffffffffffffffffffffff16815260200190815260200160002060009054906101000a900473ffffffffffffffffffffffffffffffffffffffff16600460009054906101000a900473ffffffffffffffffffffffffffffffffffffffff165b915091506000600360009054906101000a900473ffffffffffffffffffffffffffffffffffffffff1673ffffffffffffffffffffffffffffffffffffffff1663e6a4390584846040518363ffffffff1660e01b8152600401610901929190615374565b60206040518083038186803b15801561091957600080fd5b505afa15801561092d573d6000803e3d6000fd5b505050506040513d601f19601f820116820180604052508101906109519190614a56565b9050600073ffffffffffffffffffffffffffffffffffffffff168173ffffffffffffffffffffffffffffffffffffffff1614156109c3576040517f08c379a00000000000000000000000000000000000000000000000000000000081526004016109ba90615571565b60405180910390fd5b603060003373ffffffffffffffffffffffffffffffffffffffff1673ffffffffffffffffffffffffffffffffffffffff16815260200190815260200160002060006007815260200190815260200160002060009054906101000a900460ff16610b21576001603060003373ffffffffffffffffffffffffffffffffffffffff1673ffffffffffffffffffffffffffffffffffffffff16815260200190815260200160002060006007815260200190815260200160002060006101000a81548160ff021916908315150217905550600160009054906101000a900473ffffffffffffffffffffffffffffffffffffffff1673ffffffffffffffffffffffffffffffffffffffff1663158a49883360056040518363ffffffff1660e01b8152600401610aee92919061534b565b600060405180830381600087803b158015610b0857600080fd5b505af1158015610b1c573d6000803e3d6000fd5b505050505b505050565b60326020528060005260406000206000915054906101000a900473ffffffffffffffffffffffffffffffffffffffff1681565b603360008273ffffffffffffffffffffffffffffffffffffffff1673ffffffffffffffffffffffffffffffffffffffff16815260200190815260200160002060009054906101000a900460ff1615610bb057600080fd5b80603260003373ffffffffffffffffffffffffffffffffffffffff1673ffffffffffffffffffffffffffffffffffffffff16815260200190815260200160002060006101000a81548173ffffffffffffffffffffffffffffffffffffffff021916908373ffffffffffffffffffffffffffffffffffffffff1602179055506001603360008373ffffffffffffffffffffffffffffffffffffffff1673ffffffffffffffffffffffffffffffffffffffff16815260200190815260200160002060006101000a81548160ff02191690831515021790555050565b60306020528160005260406000206020528060005260406000206000915091509054906101000a900460ff1681565b602d5481565b6000600260009054906101000a900473ffffffffffffffffffffffffffffffffffffffff1673ffffffffffffffffffffffffffffffffffffffff166370a08231336040518263ffffffff1660e01b8152600401610d1b919061528c565b60206040518083038186803b158015610d3357600080fd5b505afa158015610d47573d6000803e3d6000fd5b505050506040513d601f19601f82011682018060405250810190610d6b9190614c45565b11610dab576040517f08c379a0000000000000000000000000000000000000000000000000000000008152600401610da2906154f1565b60405180910390fd5b603060003373ffffffffffffffffffffffffffffffffffffffff1673ffffffffffffffffffffffffffffffffffffffff16815260200190815260200160002060006001815260200190815260200160002060009054906101000a900460ff16610f09576001603060003373ffffffffffffffffffffffffffffffffffffffff1673ffffffffffffffffffffffffffffffffffffffff16815260200190815260200160002060006001815260200190815260200160002060006101000a81548160ff021916908315150217905550600160009054906101000a900473ffffffffffffffffffffffffffffffffffffffff1673ffffffffffffffffffffffffffffffffffffffff1663158a49883360026040518363ffffffff1660e01b8152600401610ed6929190615322565b600060405180830381600087803b158015610ef057600080fd5b505af1158015610f04573d6000803e3d6000fd5b505050505b565b600360009054906101000a900473ffffffffffffffffffffffffffffffffffffffff1681565b600080600260009054906101000a900473ffffffffffffffffffffffffffffffffffffffff1673ffffffffffffffffffffffffffffffffffffffff16603160003373ffffffffffffffffffffffffffffffffffffffff1673ffffffffffffffffffffffffffffffffffffffff16815260200190815260200160002060009054906101000a900473ffffffffffffffffffffffffffffffffffffffff1673ffffffffffffffffffffffffffffffffffffffff161061107057600260009054906101000a900473ffffffffffffffffffffffffffffffffffffffff16603160003373ffffffffffffffffffffffffffffffffffffffff1673ffffffffffffffffffffffffffffffffffffffff16815260200190815260200160002060009054906101000a900473ffffffffffffffffffffffffffffffffffffffff166110f4565b603160003373ffffffffffffffffffffffffffffffffffffffff1673ffffffffffffffffffffffffffffffffffffffff16815260200190815260200160002060009054906101000a900473ffffffffffffffffffffffffffffffffffffffff16600260009054906101000a900473ffffffffffffffffffffffffffffffffffffffff165b915091506000600360009054906101000a900473ffffffffffffffffffffffffffffffffffffffff1673ffffffffffffffffffffffffffffffffffffffff1663e6a4390584846040518363ffffffff1660e01b8152600401611157929190615374565b60206040518083038186803b15801561116f57600080fd5b505afa158015611183573d6000803e3d6000fd5b505050506040513d601f19601f820116820180604052508101906111a79190614a56565b905060008190506000808273ffffffffffffffffffffffffffffffffffffffff16630902f1ac6040518163ffffffff1660e01b815260040160606040518083038186803b1580156111f757600080fd5b505afa15801561120b573d6000803e3d6000fd5b505050506040513d601f19601f8201168201806040525081019061122f9190614bf6565b50915091506000603160003373ffffffffffffffffffffffffffffffffffffffff1673ffffffffffffffffffffffffffffffffffffffff16815260200190815260200160002060009054906101000a900473ffffffffffffffffffffffffffffffffffffffff1673ffffffffffffffffffffffffffffffffffffffff166370a08231603260003373ffffffffffffffffffffffffffffffffffffffff1673ffffffffffffffffffffffffffffffffffffffff16815260200190815260200160002060009054906101000a900473ffffffffffffffffffffffffffffffffffffffff166040518263ffffffff1660e01b815260040161132d9190615271565b60206040518083038186803b15801561134557600080fd5b505afa158015611359573d6000803e3d6000fd5b505050506040513d601f19601f8201168201806040525081019061137d9190614c45565b90506000600260009054906101000a900473ffffffffffffffffffffffffffffffffffffffff1673ffffffffffffffffffffffffffffffffffffffff166370a08231603260003373ffffffffffffffffffffffffffffffffffffffff1673ffffffffffffffffffffffffffffffffffffffff16815260200190815260200160002060009054906101000a900473ffffffffffffffffffffffffffffffffffffffff166040518263ffffffff1660e01b815260040161143b9190615271565b60206040518083038186803b15801561145357600080fd5b505afa158015611467573d6000803e3d6000fd5b505050506040513d601f19601f8201168201806040525081019061148b9190614c45565b9050603260003373ffffffffffffffffffffffffffffffffffffffff1673ffffffffffffffffffffffffffffffffffffffff16815260200190815260200160002060009054906101000a900473ffffffffffffffffffffffffffffffffffffffff1673ffffffffffffffffffffffffffffffffffffffff16637c587b226040518163ffffffff1660e01b8152600401600060405180830381600087803b15801561153457600080fd5b505af1158015611548573d6000803e3d6000fd5b505050506000808673ffffffffffffffffffffffffffffffffffffffff16630902f1ac6040518163ffffffff1660e01b815260040160606040518083038186803b15801561159557600080fd5b505afa1580156115a9573d6000803e3d6000fd5b505050506040513d601f19601f820116820180604052508101906115cd9190614bf6565b5091509150816dffffffffffffffffffffffffffff16866dffffffffffffffffffffffffffff16141580156116225750806dffffffffffffffffffffffffffff16856dffffffffffffffffffffffffffff1614155b611661576040517f08c379a000000000000000000000000000000000000000000000000000000000815260040161165890615591565b60405180910390fd5b6000603160003373ffffffffffffffffffffffffffffffffffffffff1673ffffffffffffffffffffffffffffffffffffffff16815260200190815260200160002060009054906101000a900473ffffffffffffffffffffffffffffffffffffffff1673ffffffffffffffffffffffffffffffffffffffff166370a08231603260003373ffffffffffffffffffffffffffffffffffffffff1673ffffffffffffffffffffffffffffffffffffffff16815260200190815260200160002060009054906101000a900473ffffffffffffffffffffffffffffffffffffffff166040518263ffffffff1660e01b815260040161175a9190615271565b60206040518083038186803b15801561177257600080fd5b505afa158015611786573d6000803e3d6000fd5b505050506040513d601f19601f820116820180604052508101906117aa9190614c45565b9050808514156117ef576040517f08c379a00000000000000000000000000000000000000000000000000000000081526004016117e6906155f1565b60405180910390fd5b6000600260009054906101000a900473ffffffffffffffffffffffffffffffffffffffff1673ffffffffffffffffffffffffffffffffffffffff166370a08231603260003373ffffffffffffffffffffffffffffffffffffffff1673ffffffffffffffffffffffffffffffffffffffff16815260200190815260200160002060009054906101000a900473ffffffffffffffffffffffffffffffffffffffff166040518263ffffffff1660e01b81526004016118ab9190615271565b60206040518083038186803b1580156118c357600080fd5b505afa1580156118d7573d6000803e3d6000fd5b505050506040513d601f19601f820116820180604052508101906118fb9190614c45565b905080851415611940576040517f08c379a000000000000000000000000000000000000000000000000000000000815260040161193790615551565b60405180910390fd5b603060003373ffffffffffffffffffffffffffffffffffffffff1673ffffffffffffffffffffffffffffffffffffffff16815260200190815260200160002060006009815260200190815260200160002060009054906101000a900460ff16611a9e576001603060003373ffffffffffffffffffffffffffffffffffffffff1673ffffffffffffffffffffffffffffffffffffffff16815260200190815260200160002060006009815260200190815260200160002060006101000a81548160ff021916908315150217905550600160009054906101000a900473ffffffffffffffffffffffffffffffffffffffff1673ffffffffffffffffffffffffffffffffffffffff1663158a49883360026040518363ffffffff1660e01b8152600401611a6b929190615322565b600060405180830381600087803b158015611a8557600080fd5b505af1158015611a99573d6000803e3d6000fd5b505050505b505050505050505050505050565b600260009054906101000a900473ffffffffffffffffffffffffffffffffffffffff1681565b603360008273ffffffffffffffffffffffffffffffffffffffff1673ffffffffffffffffffffffffffffffffffffffff16815260200190815260200160002060009054906101000a900460ff1615611b2957600080fd5b80603160003373ffffffffffffffffffffffffffffffffffffffff1673ffffffffffffffffffffffffffffffffffffffff16815260200190815260200160002060006101000a81548173ffffffffffffffffffffffffffffffffffffffff021916908373ffffffffffffffffffffffffffffffffffffffff1602179055506001603360008373ffffffffffffffffffffffffffffffffffffffff1673ffffffffffffffffffffffffffffffffffffffff16815260200190815260200160002060006101000a81548160ff02191690831515021790555050565b602f6020528060005260406000206000915090505481565b606060008090505b60208160ff16108015611c6d5750600060f81b838260ff1660208110611c4457fe5b1a60f81b7effffffffffffffffffffffffffffffffffffffffffffffffffffffffffffff191614155b15611c7f578080600101915050611c22565b60608160ff1667ffffffffffffffff81118015611c9b57600080fd5b506040519080825280601f01601f191660200182016040528015611cce5781602001600182028036833780820191505090505b509050600091505b60208260ff16108015611d215750600060f81b848360ff1660208110611cf857fe5b1a60f81b7effffffffffffffffffffffffffffffffffffffffffffffffffffffffffffff191614155b15611d8457838260ff1660208110611d3557fe5b1a60f81b818360ff1681518110611d4857fe5b60200101907effffffffffffffffffffffffffffffffffffffffffffffffffffffffffffff1916908160001a9053508180600101925050611cd6565b8092505050919050565b670de0b6b3a76400006005602d5460148110611da657fe5b015402602f60003373ffffffffffffffffffffffffffffffffffffffff1673ffffffffffffffffffffffffffffffffffffffff168152602001908152602001600020819055506019602d5460148110611dfb57fe5b01602e60003373ffffffffffffffffffffffffffffffffffffffff1673ffffffffffffffffffffffffffffffffffffffff1681526020019081526020016000209080546001816001161561010002031660029004611e5a9291906145a7565b506001602d600082825401925050819055506014602d5410611e7f576000602d819055505b603060003373ffffffffffffffffffffffffffffffffffffffff1673ffffffffffffffffffffffffffffffffffffffff16815260200190815260200160002060006005815260200190815260200160002060009054906101000a900460ff16611fdd576001603060003373ffffffffffffffffffffffffffffffffffffffff1673ffffffffffffffffffffffffffffffffffffffff16815260200190815260200160002060006005815260200190815260200160002060006101000a81548160ff021916908315150217905550600160009054906101000a900473ffffffffffffffffffffffffffffffffffffffff1673ffffffffffffffffffffffffffffffffffffffff1663158a49883360026040518363ffffffff1660e01b8152600401611faa929190615322565b600060405180830381600087803b158015611fc457600080fd5b505af1158015611fd8573d6000803e3d6000fd5b505050505b565b6000602f60008373ffffffffffffffffffffffffffffffffffffffff1673ffffffffffffffffffffffffffffffffffffffff168152602001908152602001600020549050919050565b600460009054906101000a900473ffffffffffffffffffffffffffffffffffffffff1681565b600080600460009054906101000a900473ffffffffffffffffffffffffffffffffffffffff1673ffffffffffffffffffffffffffffffffffffffff16600260009054906101000a900473ffffffffffffffffffffffffffffffffffffffff1673ffffffffffffffffffffffffffffffffffffffff161061211357600460009054906101000a900473ffffffffffffffffffffffffffffffffffffffff16600260009054906101000a900473ffffffffffffffffffffffffffffffffffffffff1661215a565b600260009054906101000a900473ffffffffffffffffffffffffffffffffffffffff16600460009054906101000a900473ffffffffffffffffffffffffffffffffffffffff165b915091506000600360009054906101000a900473ffffffffffffffffffffffffffffffffffffffff1673ffffffffffffffffffffffffffffffffffffffff1663e6a4390584846040518363ffffffff1660e01b81526004016121bd929190615374565b60206040518083038186803b1580156121d557600080fd5b505afa1580156121e9573d6000803e3d6000fd5b505050506040513d601f19601f8201168201806040525081019061220d9190614a56565b9050600081905060008173ffffffffffffffffffffffffffffffffffffffff166370a08231336040518263ffffffff1660e01b815260040161224f919061528c565b60206040518083038186803b15801561226757600080fd5b505afa15801561227b573d6000803e3d6000fd5b505050506040513d601f19601f8201168201806040525081019061229f9190614c45565b116122df576040517f08c379a00000000000000000000000000000000000000000000000000000000081526004016122d690615511565b60405180910390fd5b603060003373ffffffffffffffffffffffffffffffffffffffff1673ffffffffffffffffffffffffffffffffffffffff16815260200190815260200160002060006002815260200190815260200160002060009054906101000a900460ff1661243d576001603060003373ffffffffffffffffffffffffffffffffffffffff1673ffffffffffffffffffffffffffffffffffffffff16815260200190815260200160002060006002815260200190815260200160002060006101000a81548160ff021916908315150217905550600160009054906101000a900473ffffffffffffffffffffffffffffffffffffffff1673ffffffffffffffffffffffffffffffffffffffff1663158a49883360026040518363ffffffff1660e01b815260040161240a929190615322565b600060405180830381600087803b15801561242457600080fd5b505af1158015612438573d6000803e3d6000fd5b505050505b50505050565b600080600460009054906101000a900473ffffffffffffffffffffffffffffffffffffffff1673ffffffffffffffffffffffffffffffffffffffff16603160003373ffffffffffffffffffffffffffffffffffffffff1673ffffffffffffffffffffffffffffffffffffffff16815260200190815260200160002060009054906101000a900473ffffffffffffffffffffffffffffffffffffffff1673ffffffffffffffffffffffffffffffffffffffff161061258257600460009054906101000a900473ffffffffffffffffffffffffffffffffffffffff16603160003373ffffffffffffffffffffffffffffffffffffffff1673ffffffffffffffffffffffffffffffffffffffff16815260200190815260200160002060009054906101000a900473ffffffffffffffffffffffffffffffffffffffff16612606565b603160003373ffffffffffffffffffffffffffffffffffffffff1673ffffffffffffffffffffffffffffffffffffffff16815260200190815260200160002060009054906101000a900473ffffffffffffffffffffffffffffffffffffffff16600460009054906101000a900473ffffffffffffffffffffffffffffffffffffffff165b915091506000600360009054906101000a900473ffffffffffffffffffffffffffffffffffffffff1673ffffffffffffffffffffffffffffffffffffffff1663e6a4390584846040518363ffffffff1660e01b8152600401612669929190615374565b60206040518083038186803b15801561268157600080fd5b505afa158015612695573d6000803e3d6000fd5b505050506040513d601f19601f820116820180604052508101906126b99190614a56565b905060008190506000808273ffffffffffffffffffffffffffffffffffffffff16630902f1ac6040518163ffffffff1660e01b815260040160606040518083038186803b15801561270957600080fd5b505afa15801561271d573d6000803e3d6000fd5b505050506040513d601f19601f820116820180604052508101906127419190614bf6565b5091509150603260003373ffffffffffffffffffffffffffffffffffffffff1673ffffffffffffffffffffffffffffffffffffffff16815260200190815260200160002060009054906101000a900473ffffffffffffffffffffffffffffffffffffffff1673ffffffffffffffffffffffffffffffffffffffff16637ea382c16040518163ffffffff1660e01b8152600401600060405180830381600087803b1580156127ed57600080fd5b505af1158015612801573d6000803e3d6000fd5b505050506000808473ffffffffffffffffffffffffffffffffffffffff16630902f1ac6040518163ffffffff1660e01b815260040160606040518083038186803b15801561284e57600080fd5b505afa158015612862573d6000803e3d6000fd5b505050506040513d601f19601f820116820180604052508101906128869190614bf6565b5091509150816dffffffffffffffffffffffffffff16846dffffffffffffffffffffffffffff161180156128d95750806dffffffffffffffffffffffffffff16836dffffffffffffffffffffffffffff16115b612918576040517f08c379a000000000000000000000000000000000000000000000000000000000815260040161290f90615591565b60405180910390fd5b603060003373ffffffffffffffffffffffffffffffffffffffff1673ffffffffffffffffffffffffffffffffffffffff1681526020019081526020016000206000600b815260200190815260200160002060009054906101000a900460ff16612a76576001603060003373ffffffffffffffffffffffffffffffffffffffff1673ffffffffffffffffffffffffffffffffffffffff1681526020019081526020016000206000600b815260200190815260200160002060006101000a81548160ff021916908315150217905550600160009054906101000a900473ffffffffffffffffffffffffffffffffffffffff1673ffffffffffffffffffffffffffffffffffffffff1663158a49883360026040518363ffffffff1660e01b8152600401612a43929190615322565b600060405180830381600087803b158015612a5d57600080fd5b505af1158015612a71573d6000803e3d6000fd5b505050505b5050505050505050565b600080600460009054906101000a900473ffffffffffffffffffffffffffffffffffffffff1673ffffffffffffffffffffffffffffffffffffffff16603160003373ffffffffffffffffffffffffffffffffffffffff1673ffffffffffffffffffffffffffffffffffffffff16815260200190815260200160002060009054906101000a900473ffffffffffffffffffffffffffffffffffffffff1673ffffffffffffffffffffffffffffffffffffffff1610612bbf57600460009054906101000a900473ffffffffffffffffffffffffffffffffffffffff16603160003373ffffffffffffffffffffffffffffffffffffffff1673ffffffffffffffffffffffffffffffffffffffff16815260200190815260200160002060009054906101000a900473ffffffffffffffffffffffffffffffffffffffff16612c43565b603160003373ffffffffffffffffffffffffffffffffffffffff1673ffffffffffffffffffffffffffffffffffffffff16815260200190815260200160002060009054906101000a900473ffffffffffffffffffffffffffffffffffffffff16600460009054906101000a900473ffffffffffffffffffffffffffffffffffffffff165b915091506000600360009054906101000a900473ffffffffffffffffffffffffffffffffffffffff1673ffffffffffffffffffffffffffffffffffffffff1663e6a4390584846040518363ffffffff1660e01b8152600401612ca6929190615374565b60206040518083038186803b158015612cbe57600080fd5b505afa158015612cd2573d6000803e3d6000fd5b505050506040513d601f19601f82011682018060405250810190612cf69190614a56565b905060008190506000808273ffffffffffffffffffffffffffffffffffffffff16630902f1ac6040518163ffffffff1660e01b815260040160606040518083038186803b158015612d4657600080fd5b505afa158015612d5a573d6000803e3d6000fd5b505050506040513d601f19601f82011682018060405250810190612d7e9190614bf6565b50915091506000603160003373ffffffffffffffffffffffffffffffffffffffff1673ffffffffffffffffffffffffffffffffffffffff16815260200190815260200160002060009054906101000a900473ffffffffffffffffffffffffffffffffffffffff1673ffffffffffffffffffffffffffffffffffffffff166370a08231603260003373ffffffffffffffffffffffffffffffffffffffff1673ffffffffffffffffffffffffffffffffffffffff16815260200190815260200160002060009054906101000a900473ffffffffffffffffffffffffffffffffffffffff166040518263ffffffff1660e01b8152600401612e7c9190615271565b60206040518083038186803b158015612e9457600080fd5b505afa158015612ea8573d6000803e3d6000fd5b505050506040513d601f19601f82011682018060405250810190612ecc9190614c45565b9050603260003373ffffffffffffffffffffffffffffffffffffffff1673ffffffffffffffffffffffffffffffffffffffff16815260200190815260200160002060009054906101000a900473ffffffffffffffffffffffffffffffffffffffff1673ffffffffffffffffffffffffffffffffffffffff1663c4a859936040518163ffffffff1660e01b8152600401600060405180830381600087803b158015612f7557600080fd5b505af1158015612f89573d6000803e3d6000fd5b505050506000808573ffffffffffffffffffffffffffffffffffffffff16630902f1ac6040518163ffffffff1660e01b815260040160606040518083038186803b158015612fd657600080fd5b505afa158015612fea573d6000803e3d6000fd5b505050506040513d601f19601f8201168201806040525081019061300e9190614bf6565b5091509150816dffffffffffffffffffffffffffff16856dffffffffffffffffffffffffffff16141580156130635750806dffffffffffffffffffffffffffff16846dffffffffffffffffffffffffffff1614155b6130a2576040517f08c379a000000000000000000000000000000000000000000000000000000000815260040161309990615591565b60405180910390fd5b6000603160003373ffffffffffffffffffffffffffffffffffffffff1673ffffffffffffffffffffffffffffffffffffffff16815260200190815260200160002060009054906101000a900473ffffffffffffffffffffffffffffffffffffffff1673ffffffffffffffffffffffffffffffffffffffff166370a08231603260003373ffffffffffffffffffffffffffffffffffffffff1673ffffffffffffffffffffffffffffffffffffffff16815260200190815260200160002060009054906101000a900473ffffffffffffffffffffffffffffffffffffffff166040518263ffffffff1660e01b815260040161319b9190615271565b60206040518083038186803b1580156131b357600080fd5b505afa1580156131c7573d6000803e3d6000fd5b505050506040513d601f19601f820116820180604052508101906131eb9190614c45565b905080841415613230576040517f08c379a000000000000000000000000000000000000000000000000000000000815260040161322790615491565b60405180910390fd5b603060003373ffffffffffffffffffffffffffffffffffffffff1673ffffffffffffffffffffffffffffffffffffffff16815260200190815260200160002060006008815260200190815260200160002060009054906101000a900460ff1661338e576001603060003373ffffffffffffffffffffffffffffffffffffffff1673ffffffffffffffffffffffffffffffffffffffff16815260200190815260200160002060006008815260200190815260200160002060006101000a81548160ff021916908315150217905550600160009054906101000a900473ffffffffffffffffffffffffffffffffffffffff1673ffffffffffffffffffffffffffffffffffffffff1663158a49883360016040518363ffffffff1660e01b815260040161335b9291906152f9565b600060405180830381600087803b15801561337557600080fd5b505af1158015613389573d6000803e3d6000fd5b505050505b50505050505050505050565b603060003373ffffffffffffffffffffffffffffffffffffffff1673ffffffffffffffffffffffffffffffffffffffff16815260200190815260200160002060006005815260200190815260200160002060009054906101000a900460ff1661340257600080fd5b6135c4602e60003373ffffffffffffffffffffffffffffffffffffffff1673ffffffffffffffffffffffffffffffffffffffff1681526020019081526020016000208054600181600116156101000203166002900480601f0160208091040260200160405190810160405280929190818152602001828054600181600116156101000203166002900480156134d85780601f106134ad576101008083540402835291602001916134d8565b820191906000526020600020905b8154815290600101906020018083116134bb57829003601f168201915b5050505050603160003373ffffffffffffffffffffffffffffffffffffffff1673ffffffffffffffffffffffffffffffffffffffff16815260200190815260200160002060009054906101000a900473ffffffffffffffffffffffffffffffffffffffff1673ffffffffffffffffffffffffffffffffffffffff166395d89b416040518163ffffffff1660e01b815260040160006040518083038186803b15801561358257600080fd5b505afa158015613596573d6000803e3d6000fd5b505050506040513d6000823e3d601f19601f820116820180604052508101906135bf9190614bb5565b61454e565b613603576040517f08c379a00000000000000000000000000000000000000000000000000000000081526004016135fa906154d1565b60405180910390fd5b603160003373ffffffffffffffffffffffffffffffffffffffff1673ffffffffffffffffffffffffffffffffffffffff16815260200190815260200160002060009054906101000a900473ffffffffffffffffffffffffffffffffffffffff1673ffffffffffffffffffffffffffffffffffffffff166318160ddd6040518163ffffffff1660e01b815260040160206040518083038186803b1580156136a857600080fd5b505afa1580156136bc573d6000803e3d6000fd5b505050506040513d601f19601f820116820180604052508101906136e09190614c45565b602f60003373ffffffffffffffffffffffffffffffffffffffff1673ffffffffffffffffffffffffffffffffffffffff1681526020019081526020016000205414613760576040517f08c379a0000000000000000000000000000000000000000000000000000000008152600401613757906155b1565b60405180910390fd5b6000603160003373ffffffffffffffffffffffffffffffffffffffff1673ffffffffffffffffffffffffffffffffffffffff16815260200190815260200160002060009054906101000a900473ffffffffffffffffffffffffffffffffffffffff1673ffffffffffffffffffffffffffffffffffffffff1663dd62ed3e30336040518363ffffffff1660e01b81526004016137fc9291906152a7565b60206040518083038186803b15801561381457600080fd5b505afa158015613828573d6000803e3d6000fd5b505050506040513d601f19601f8201168201806040525081019061384c9190614c45565b1461388c576040517f08c379a0000000000000000000000000000000000000000000000000000000008152600401613883906155d1565b60405180910390fd5b6000603160003373ffffffffffffffffffffffffffffffffffffffff1673ffffffffffffffffffffffffffffffffffffffff16815260200190815260200160002060009054906101000a900473ffffffffffffffffffffffffffffffffffffffff1673ffffffffffffffffffffffffffffffffffffffff166370a08231306040518263ffffffff1660e01b8152600401613926919061528c565b60206040518083038186803b15801561393e57600080fd5b505afa158015613952573d6000803e3d6000fd5b505050506040513d601f19601f820116820180604052508101906139769190614c45565b146139b6576040517f08c379a00000000000000000000000000000000000000000000000000000000081526004016139ad90615531565b60405180910390fd5b603160003373ffffffffffffffffffffffffffffffffffffffff1673ffffffffffffffffffffffffffffffffffffffff16815260200190815260200160002060009054906101000a900473ffffffffffffffffffffffffffffffffffffffff1673ffffffffffffffffffffffffffffffffffffffff1663095ea7b333600a6040518363ffffffff1660e01b8152600401613a519291906152d0565b602060405180830381600087803b158015613a6b57600080fd5b505af1158015613a7f573d6000803e3d6000fd5b505050506040513d601f19601f82011682018060405250810190613aa39190614b11565b613ae2576040517f08c379a0000000000000000000000000000000000000000000000000000000008152600401613ad9906154b1565b60405180910390fd5b603060003373ffffffffffffffffffffffffffffffffffffffff1673ffffffffffffffffffffffffffffffffffffffff16815260200190815260200160002060006006815260200190815260200160002060009054906101000a900460ff16613c40576001603060003373ffffffffffffffffffffffffffffffffffffffff1673ffffffffffffffffffffffffffffffffffffffff16815260200190815260200160002060006006815260200190815260200160002060006101000a81548160ff021916908315150217905550600160009054906101000a900473ffffffffffffffffffffffffffffffffffffffff1673ffffffffffffffffffffffffffffffffffffffff1663158a49883360026040518363ffffffff1660e01b8152600401613c0d929190615322565b600060405180830381600087803b158015613c2757600080fd5b505af1158015613c3b573d6000803e3d6000fd5b505050505b565b600160009054906101000a900473ffffffffffffffffffffffffffffffffffffffff1681565b600160009054906101000a900473ffffffffffffffffffffffffffffffffffffffff1673ffffffffffffffffffffffffffffffffffffffff1663f0a47f78336040518263ffffffff1660e01b8152600401613cc3919061528c565b60206040518083038186803b158015613cdb57600080fd5b505afa158015613cef573d6000803e3d6000fd5b505050506040513d601f19601f82011682018060405250810190613d139190614b11565b613d1c57600080fd5b816005906014613d2d92919061462e565b50806019906014613d3f92919061466e565b506000602d8190555060008090505b6014811015613db8577fcc783cf5d663570e7c7576cec91f24975b35b957c8dd67766710be25c48cf60260198260148110613d8557fe5b0160058360148110613d9357fe5b0154604051613da3929190615461565b60405180910390a18080600101915050613d4e565b505050565b6060602e60008373ffffffffffffffffffffffffffffffffffffffff1673ffffffffffffffffffffffffffffffffffffffff1681526020019081526020016000208054600181600116156101000203166002900480601f016020809104026020016040519081016040528092919081815260200182805460018160011615610100020316600290048015613e925780601f10613e6757610100808354040283529160200191613e92565b820191906000526020600020905b815481529060010190602001808311613e7557829003601f168201915b50505050509050919050565b60316020528060005260406000206000915054906101000a900473ffffffffffffffffffffffffffffffffffffffff1681565b600080600460009054906101000a900473ffffffffffffffffffffffffffffffffffffffff1673ffffffffffffffffffffffffffffffffffffffff16603160003373ffffffffffffffffffffffffffffffffffffffff1673ffffffffffffffffffffffffffffffffffffffff16815260200190815260200160002060009054906101000a900473ffffffffffffffffffffffffffffffffffffffff1673ffffffffffffffffffffffffffffffffffffffff161061401057600460009054906101000a900473ffffffffffffffffffffffffffffffffffffffff16603160003373ffffffffffffffffffffffffffffffffffffffff1673ffffffffffffffffffffffffffffffffffffffff16815260200190815260200160002060009054906101000a900473ffffffffffffffffffffffffffffffffffffffff16614094565b603160003373ffffffffffffffffffffffffffffffffffffffff1673ffffffffffffffffffffffffffffffffffffffff16815260200190815260200160002060009054906101000a900473ffffffffffffffffffffffffffffffffffffffff16600460009054906101000a900473ffffffffffffffffffffffffffffffffffffffff165b915091506000600360009054906101000a900473ffffffffffffffffffffffffffffffffffffffff1673ffffffffffffffffffffffffffffffffffffffff1663e6a4390584846040518363ffffffff1660e01b81526004016140f7929190615374565b60206040518083038186803b15801561410f57600080fd5b505afa158015614123573d6000803e3d6000fd5b505050506040513d601f19601f820116820180604052508101906141479190614a56565b905060008190506000808273ffffffffffffffffffffffffffffffffffffffff16630902f1ac6040518163ffffffff1660e01b815260040160606040518083038186803b15801561419757600080fd5b505afa1580156141ab573d6000803e3d6000fd5b505050506040513d601f19601f820116820180604052508101906141cf9190614bf6565b5091509150603260003373ffffffffffffffffffffffffffffffffffffffff1673ffffffffffffffffffffffffffffffffffffffff16815260200190815260200160002060009054906101000a900473ffffffffffffffffffffffffffffffffffffffff1673ffffffffffffffffffffffffffffffffffffffff1663e8078d946040518163ffffffff1660e01b8152600401600060405180830381600087803b15801561427b57600080fd5b505af115801561428f573d6000803e3d6000fd5b505050506000808473ffffffffffffffffffffffffffffffffffffffff16630902f1ac6040518163ffffffff1660e01b815260040160606040518083038186803b1580156142dc57600080fd5b505afa1580156142f0573d6000803e3d6000fd5b505050506040513d601f19601f820116820180604052508101906143149190614bf6565b5091509150816dffffffffffffffffffffffffffff16846dffffffffffffffffffffffffffff161080156143675750806dffffffffffffffffffffffffffff16836dffffffffffffffffffffffffffff16105b6143a6576040517f08c379a000000000000000000000000000000000000000000000000000000000815260040161439d90615591565b60405180910390fd5b603060003373ffffffffffffffffffffffffffffffffffffffff1673ffffffffffffffffffffffffffffffffffffffff1681526020019081526020016000206000600a815260200190815260200160002060009054906101000a900460ff16614504576001603060003373ffffffffffffffffffffffffffffffffffffffff1673ffffffffffffffffffffffffffffffffffffffff1681526020019081526020016000206000600a815260200190815260200160002060006101000a81548160ff021916908315150217905550600160009054906101000a900473ffffffffffffffffffffffffffffffffffffffff1673ffffffffffffffffffffffffffffffffffffffff1663158a49883360026040518363ffffffff1660e01b81526004016144d1929190615322565b600060405180830381600087803b1580156144eb57600080fd5b505af11580156144ff573d6000803e3d6000fd5b505050505b5050505050505050565b60006020528060005260406000206000915054906101000a900460ff1681565b60336020528060005260406000206000915054906101000a900460ff1681565b600081604051602001614561919061525a565b6040516020818303038152906040528051906020012083604051602001614588919061525a565b6040516020818303038152906040528051906020012014905092915050565b828054600181600116156101000203166002900490600052602060002090601f016020900481019282601f106145e0578054855561461d565b8280016001018555821561461d57600052602060002091601f016020900482015b8281111561461c578254825591600101919060010190614601565b5b50905061462a91906146c1565b5090565b826014810192821561465d579160200282015b8281111561465c578251825591602001919060010190614641565b5b50905061466a91906146c1565b5090565b82601481019282156146b0579160200282015b828111156146af57825182908051906020019061469f9291906146e6565b5091602001919060010190614681565b5b5090506146bd9190614766565b5090565b6146e391905b808211156146df5760008160009055506001016146c7565b5090565b90565b828054600181600116156101000203166002900490600052602060002090601f016020900481019282601f1061472757805160ff1916838001178555614755565b82800160010185558215614755579182015b82811115614754578251825591602001919060010190614739565b5b50905061476291906146c1565b5090565b61478f91905b8082111561478b57600081816147829190614792565b5060010161476c565b5090565b90565b50805460018160011615610100020316600290046000825580601f106147b857506147d7565b601f0160209004906000526020600020908101906147d691906146c1565b5b50565b6000813590506147e98161592a565b92915050565b6000815190506147fe8161592a565b92915050565b600082601f83011261481557600080fd5b601461482861482382615659565b61562c565b9150818360005b8381101561485f57813586016148458882614931565b84526020840193506020830192505060018101905061482f565b5050505092915050565b600082601f83011261487a57600080fd5b601461488d6148888261567b565b61562c565b915081838560208402820111156148a357600080fd5b60005b838110156148d357816148b988826149ee565b8452602084019350602083019250506001810190506148a6565b5050505092915050565b6000815190506148ec81615941565b92915050565b60008135905061490181615958565b92915050565b6000813590506149168161596f565b92915050565b60008135905061492b81615986565b92915050565b600082601f83011261494257600080fd5b81356149556149508261569d565b61562c565b9150808252602083016020830185838301111561497157600080fd5b61497c8382846158d7565b50505092915050565b600082601f83011261499657600080fd5b81516149a96149a48261569d565b61562c565b915080825260208301602083018583830111156149c557600080fd5b6149d08382846158e6565b50505092915050565b6000815190506149e88161599d565b92915050565b6000813590506149fd816159b4565b92915050565b600081519050614a12816159b4565b92915050565b600081519050614a27816159cb565b92915050565b600060208284031215614a3f57600080fd5b6000614a4d848285016147da565b91505092915050565b600060208284031215614a6857600080fd5b6000614a76848285016147ef565b91505092915050565b60008060408385031215614a9257600080fd5b6000614aa0858286016147da565b9250506020614ab1858286016149ee565b9150509250929050565b6000806102a08385031215614acf57600080fd5b6000614add85828601614869565b92505061028083013567ffffffffffffffff811115614afb57600080fd5b614b0785828601614804565b9150509250929050565b600060208284031215614b2357600080fd5b6000614b31848285016148dd565b91505092915050565b600060208284031215614b4c57600080fd5b6000614b5a848285016148f2565b91505092915050565b600060208284031215614b7557600080fd5b6000614b8384828501614907565b91505092915050565b600060208284031215614b9e57600080fd5b6000614bac8482850161491c565b91505092915050565b600060208284031215614bc757600080fd5b600082015167ffffffffffffffff811115614be157600080fd5b614bed84828501614985565b91505092915050565b600080600060608486031215614c0b57600080fd5b6000614c19868287016149d9565b9350506020614c2a868287016149d9565b9250506040614c3b86828701614a18565b9150509250925092565b600060208284031215614c5757600080fd5b6000614c6584828501614a03565b91505092915050565b614c77816157a5565b82525050565b614c8681615705565b82525050565b614c9581615717565b82525050565b614ca4816157b7565b82525050565b614cb3816157db565b82525050565b614cc2816157ff565b82525050565b614cd181615823565b82525050565b614ce081615847565b82525050565b614cef8161586b565b82525050565b614cfe8161587d565b82525050565b614d0d8161588f565b82525050565b614d1c816158a1565b82525050565b6000614d2d826156de565b614d3781856156e9565b9350614d478185602086016158e6565b614d5081615919565b840191505092915050565b6000614d66826156de565b614d7081856156fa565b9350614d808185602086016158e6565b80840191505092915050565b600081546001811660008114614da95760018114614dcf57614e13565b607f6002830416614dba81876156e9565b955060ff198316865260208601935050614e13565b60028204614ddd81876156e9565b9550614de8856156c9565b60005b82811015614e0a57815481890152600182019150602081019050614deb565b80880195505050505b505092915050565b6000614e286028836156e9565b91507f596f75207374696c6c2068617665207468652073616d6520616d6f756e74206f60008301527f6620746f6b656e730000000000000000000000000000000000000000000000006020830152604082019050919050565b6000614e8e6017836156e9565b91507f417070726f7665206e6f7420696d706c656d656e7465640000000000000000006000830152602082019050919050565b6000614ece6010836156e9565b91507f496e636f7272656374207469636b6572000000000000000000000000000000006000830152602082019050919050565b6000614f0e6030836156e9565b91507f596f7520646f206e6f7420686f6c642064756d6d79546f6b656e732e2042757960008301527f207468656d206f6e20556e6973776170000000000000000000000000000000006020830152604082019050919050565b6000614f74602e836156e9565b91507f596f7520646f206e6f7420686f6c64206c697175696469747920696e2074686560008301527f20726571756972656420706f6f6c0000000000000000000000000000000000006020830152604082019050919050565b6000614fda602c836156e9565b91507f42616c616e63654f66206e6f7420696d706c656d656e746564206f7220696e6360008301527f6f72726563746c792073657400000000000000000000000000000000000000006020830152604082019050919050565b6000615040602e836156e9565b91507f596f75207374696c6c2068617665207468652073616d6520616d6f756e74206f60008301527f662064756d6d7920746f6b656e730000000000000000000000000000000000006020830152604082019050919050565b60006150a66007836156e9565b91507f6c61207a6f6e65000000000000000000000000000000000000000000000000006000830152602082019050919050565b60006150e66028836156e9565b91507f4e6f206c6971756964697479206368616e676520696e20796f757220746f6b6560008301527f6e277320706f6f6c0000000000000000000000000000000000000000000000006020830152604082019050919050565b600061514c6010836156e9565b91507f496e636f727265637420737570706c79000000000000000000000000000000006000830152602082019050919050565b600061518c602c836156e9565b91507f416c6c6f77616e6365206e6f7420696d706c656d656e746564206f7220696e6360008301527f6f72726563746c792073657400000000000000000000000000000000000000006020830152604082019050919050565b60006151f2602d836156e9565b91507f596f75207374696c6c2068617665207468652073616d6520616d6f756e74206f60008301527f6620796f757220746f6b656e73000000000000000000000000000000000000006020830152604082019050919050565b6152548161578b565b82525050565b60006152668284614d5b565b915081905092915050565b60006020820190506152866000830184614c7d565b92915050565b60006020820190506152a16000830184614c6e565b92915050565b60006040820190506152bc6000830185614c6e565b6152c96020830184614c6e565b9392505050565b60006040820190506152e56000830185614c6e565b6152f26020830184614ce6565b9392505050565b600060408201905061530e6000830185614c6e565b61531b6020830184614cf5565b9392505050565b60006040820190506153376000830185614c6e565b6153446020830184614d04565b9392505050565b60006040820190506153606000830185614c6e565b61536d6020830184614d13565b9392505050565b60006040820190506153896000830185614c7d565b6153966020830184614c7d565b9392505050565b60006020820190506153b26000830184614c8c565b92915050565b60006020820190506153cd6000830184614c9b565b92915050565b60006020820190506153e86000830184614caa565b92915050565b60006020820190506154036000830184614cb9565b92915050565b600060208201905061541e6000830184614cc8565b92915050565b60006020820190506154396000830184614cd7565b92915050565b600060208201905081810360008301526154598184614d22565b905092915050565b6000604082019050818103600083015261547b8185614d8c565b905061548a602083018461524b565b9392505050565b600060208201905081810360008301526154aa81614e1b565b9050919050565b600060208201905081810360008301526154ca81614e81565b9050919050565b600060208201905081810360008301526154ea81614ec1565b9050919050565b6000602082019050818103600083015261550a81614f01565b9050919050565b6000602082019050818103600083015261552a81614f67565b9050919050565b6000602082019050818103600083015261554a81614fcd565b9050919050565b6000602082019050818103600083015261556a81615033565b9050919050565b6000602082019050818103600083015261558a81615099565b9050919050565b600060208201905081810360008301526155aa816150d9565b9050919050565b600060208201905081810360008301526155ca8161513f565b9050919050565b600060208201905081810360008301526155ea8161517f565b9050919050565b6000602082019050818103600083015261560a816151e5565b9050919050565b6000602082019050615626600083018461524b565b92915050565b6000604051905081810181811067ffffffffffffffff8211171561564f57600080fd5b8060405250919050565b600067ffffffffffffffff82111561567057600080fd5b602082029050919050565b600067ffffffffffffffff82111561569257600080fd5b602082029050919050565b600067ffffffffffffffff8211156156b457600080fd5b601f19601f8301169050602081019050919050565b60008190508160005260206000209050919050565b600081519050919050565b600082825260208201905092915050565b600081905092915050565b60006157108261576b565b9050919050565b60008115159050919050565b6000819050919050565b600061573882615705565b9050919050565b600061574a82615705565b9050919050565b60006dffffffffffffffffffffffffffff82169050919050565b600073ffffffffffffffffffffffffffffffffffffffff82169050919050565b6000819050919050565b600063ffffffff82169050919050565b60006157b0826158b3565b9050919050565b60006157c2826157c9565b9050919050565b60006157d48261576b565b9050919050565b60006157e6826157ed565b9050919050565b60006157f88261576b565b9050919050565b600061580a82615811565b9050919050565b600061581c8261576b565b9050919050565b600061582e82615835565b9050919050565b60006158408261576b565b9050919050565b600061585282615859565b9050919050565b60006158648261576b565b9050919050565b60006158768261578b565b9050919050565b60006158888261578b565b9050919050565b600061589a8261578b565b9050919050565b60006158ac8261578b565b9050919050565b60006158be826158c5565b9050919050565b60006158d08261576b565b9050919050565b82818337600083830152505050565b60005b838110156159045780820151818401526020810190506158e9565b83811115615913576000848401525b50505050565b6000601f19601f8301169050919050565b61593381615705565b811461593e57600080fd5b50565b61594a81615717565b811461595557600080fd5b50565b61596181615723565b811461596c57600080fd5b50565b6159788161572d565b811461598357600080fd5b50565b61598f8161573f565b811461599a57600080fd5b50565b6159a681615751565b81146159b157600080fd5b50565b6159bd8161578b565b81146159c857600080fd5b50565b6159d481615795565b81146159df57600080fd5b5056fea2646970667358221220e20977fc5bbb5b0de1fdbfc229c7c5dbf664fc41b39122605f63c2818d61b57c64736f6c63430006060033",
  "immutableReferences": {},
  "source": "pragma solidity ^0.6.0;\npragma experimental ABIEncoderV2;\n\nimport \"./ERC20TD.sol\";\nimport \"./IExerciceSolution.sol\";\nimport \"./IRichERC20.sol\";\nimport \"./utils/IUniswapV2Factory.sol\";\nimport \"./utils/IUniswapV2Pair.sol\";\n\ncontract Evaluator \n{\n\n\tmapping(address => bool) public teachers;\n\tERC20TD public TDAMM;\n\n\tERC20 public dummyToken;\n\tIUniswapV2Factory public uniswapV2Factory;\n\taddress public WETH;\n\n\tuint256[20] private randomSupplies;\n\tstring[20] private randomTickers;\n \tuint public nextValueStoreRank;\n\n \tmapping(address => string) public assignedTicker;\n \tmapping(address => uint256) public assignedSupply;\n \tmapping(address => mapping(uint256 => bool)) public exerciceProgression;\n \tmapping(address => IRichERC20) public studentErc20;\n \tmapping(address => IExerciceSolution) public studentExercice;\n \tmapping(address => bool) public hasBeenPaired;\n\n \tevent newRandomTickerAndSupply(string ticker, uint256 supply);\n \tevent constructedCorrectly(address erc20Address, address dummyTokenAddress, address uniFactoryAddress, address wethAddress);\n\tconstructor(ERC20TD _TDAMM, ERC20 _dummyToken, IUniswapV2Factory _uniswapV2Factory, address _WETH) \n\tpublic \n\t{\n\t\tTDAMM = _TDAMM;\n\t\tdummyToken = _dummyToken;\n\t\tuniswapV2Factory = _uniswapV2Factory;\n\t\tWETH = _WETH;\n\t\temit constructedCorrectly(address(TDAMM), address(_dummyToken), address(_uniswapV2Factory), _WETH);\n\n\t}\n\n\tfallback () external payable \n\t{}\n\n\treceive () external payable \n\t{}\n\n\tfunction ex1_showIHaveTokens()\n\tpublic\n\t{\n\t\trequire(dummyToken.balanceOf(msg.sender) > 0, \"You do not hold dummyTokens. Buy them on Uniswap\");\n\n\t\tif (!exerciceProgression[msg.sender][1])\n\t\t{\n\t\t\texerciceProgression[msg.sender][1] = true;\n\t\t\tTDAMM.distributeTokens(msg.sender, 2);\n\t\t}\n\n\t}\n\n\tfunction ex2_showIProvidedLiquidity()\n\tpublic\n\t{\n\t\t// Getting address from factory for pair dummyToken / WETH\n\t\t(address token0, address token1) = address(dummyToken) < WETH ? (address(dummyToken), WETH) : (WETH, address(dummyToken));\n\t\taddress dummyTokenAndWethPair = uniswapV2Factory.getPair(token0, token1);\n\n\t\t// Checking if caller holds LP token\n\t\tERC20 dummyTokenAndWethPairAsERC20 = ERC20(dummyTokenAndWethPair);\n\t\trequire(dummyTokenAndWethPairAsERC20.balanceOf(msg.sender) > 0, \"You do not hold liquidity in the required pool\");\n\t\tif (!exerciceProgression[msg.sender][2])\n\t\t{\n\t\t\texerciceProgression[msg.sender][2] = true;\n\t\t\tTDAMM.distributeTokens(msg.sender, 2);\n\t\t}\n\t}\n\n\tfunction ex6a_getTickerAndSupply()\n\tpublic\n\t{\n\t\tassignedSupply[msg.sender] = randomSupplies[nextValueStoreRank]*1000000000000000000;\n\t\t// assignedTicker[msg.sender] = bytes32ToString(randomTickers[nextValueStoreRank]);\n\t\tassignedTicker[msg.sender] = randomTickers[nextValueStoreRank];\n\n\t\tnextValueStoreRank += 1;\n\t\tif (nextValueStoreRank >= 20)\n\t\t{\n\t\t\tnextValueStoreRank = 0;\n\t\t}\n\n\t\t// Crediting points\n\t\tif (!exerciceProgression[msg.sender][5])\n\t\t{\n\t\t\texerciceProgression[msg.sender][5] = true;\n\t\t\tTDAMM.distributeTokens(msg.sender, 2);\n\t\t}\n\t}\n\n\tfunction ex6b_testErc20TickerAndSupply()\n\tpublic\n\t{\n\t\t// Checking ticker and supply were received\n\t\trequire(exerciceProgression[msg.sender][5]);\n\n\t\t// Checking ticker was set properly\n\t\trequire(_compareStrings(assignedTicker[msg.sender], studentErc20[msg.sender].symbol()), \"Incorrect ticker\");\n\t\t// Checking supply was set properly\n\t\trequire(assignedSupply[msg.sender] == studentErc20[msg.sender].totalSupply(), \"Incorrect supply\");\n\t\t// Checking some ERC20 functions were created\n\t\trequire(studentErc20[msg.sender].allowance(address(this), msg.sender) == 0, \"Allowance not implemented or incorrectly set\");\n\t\trequire(studentErc20[msg.sender].balanceOf(address(this)) == 0, \"BalanceOf not implemented or incorrectly set\");\n\t\trequire(studentErc20[msg.sender].approve(msg.sender, 10), \"Approve not implemented\");\n\n\t\t// Crediting points\n\t\tif (!exerciceProgression[msg.sender][6])\n\t\t{\n\t\t\texerciceProgression[msg.sender][6] = true;\n\t\t\t// Creating ERC20\n\t\t\tTDAMM.distributeTokens(msg.sender, 2);\n\t\t}\n\n\t}\n\n\tfunction ex7_tokenIsTradableOnUniswap()\n\tpublic\n\t{\n\t\t// Retrieving address of pair from library\n\t\t(address token0, address token1) = address(studentErc20[msg.sender]) < WETH ? (address(studentErc20[msg.sender]), WETH) : (WETH, address(studentErc20[msg.sender]));\n\t\taddress studentTokenAndWethPair = uniswapV2Factory.getPair(token0, token1);\n\n\t\trequire(studentTokenAndWethPair != address(0),\"la zone\");\n\n\t\t// Crediting points\n\t\tif (!exerciceProgression[msg.sender][7])\n\t\t{\n\t\t\texerciceProgression[msg.sender][7] = true;\n\t\t\t// Creating ERC20\n\t\t\tTDAMM.distributeTokens(msg.sender, 5);\n\t\t}\n\n\t}\n\n\tfunction ex8_contractCanSwapVsEth()\n\tpublic\n\t{\n\t\t// Retrieving address of pair from library\n\t\t(address token0, address token1) = address(studentErc20[msg.sender]) < WETH ? (address(studentErc20[msg.sender]), WETH) : (WETH, address(studentErc20[msg.sender]));\n\t\taddress studentTokenAndWethPair = uniswapV2Factory.getPair(token0, token1);\n\n\t\t// Checking pair balance before calling exercice contract\n\t\tIUniswapV2Pair studentTokenAndWethPairInstance = IUniswapV2Pair(studentTokenAndWethPair);\n\t\t(uint112 reserve0, uint112 reserve1, ) = studentTokenAndWethPairInstance.getReserves();\n\n\t\t// Checking caller balance before executing contract\n\t\tuint initBalance = studentErc20[msg.sender].balanceOf(address(studentExercice[msg.sender]));\n\n\t\t// Calling student contract to tell him to provide liquidity\n\t\tstudentExercice[msg.sender].swapYourTokenForEth();\n\n\t\t// Checking pair balance after calling exercice contract\n\t\t(uint112 reserve3, uint112 reserve4,) = studentTokenAndWethPairInstance.getReserves();\n\t\trequire((reserve0 != reserve3) && (reserve1 != reserve4), \"No liquidity change in your token's pool\");\n\n\t\t// Checking your token balance after calling the exercice\n\t\tuint endBalance = studentErc20[msg.sender].balanceOf(address(studentExercice[msg.sender]));\n\t\trequire(initBalance != endBalance, \"You still have the same amount of tokens\");\n\n\t\t// Crediting points\n\t\tif (!exerciceProgression[msg.sender][8])\n\t\t{\n\t\t\texerciceProgression[msg.sender][8] = true;\n\t\t\t// Creating ERC20\n\t\t\tTDAMM.distributeTokens(msg.sender, 1);\n\t\t}\n\n\t}\n\n\tfunction ex9_contractCanSwapVsDummyToken()\n\tpublic\n\t{\n\t\t// Retrieving address of pair from library\n\t\t(address token0, address token1) = address(studentErc20[msg.sender]) < address(dummyToken) ? (address(studentErc20[msg.sender]), address(dummyToken)) : (address(dummyToken), address(studentErc20[msg.sender]));\n\t\taddress studentTokenAndWethPair = uniswapV2Factory.getPair(token0, token1);\n\n\t\t// Checking pair balance before calling exercice contract\n\t\tIUniswapV2Pair studentTokenAndWethPairInstance = IUniswapV2Pair(studentTokenAndWethPair);\n\t\t(uint112 reserve0, uint112 reserve1, ) = studentTokenAndWethPairInstance.getReserves();\n\t\t\n\t\t// Checking caller balance before executing contract\n\t\tuint initTokenBalance = studentErc20[msg.sender].balanceOf(address(studentExercice[msg.sender]));\n\t\tuint initDummyBalance = dummyToken.balanceOf(address(studentExercice[msg.sender]));\n\n\t\t// Calling student contract to tell him to provide liquidity\n\t\tstudentExercice[msg.sender].swapYourTokenForDummyToken();\n\n\t\t// Checking pair balance after calling exercice contract\n\t\t(uint112 reserve3, uint112 reserve4,) = studentTokenAndWethPairInstance.getReserves();\n\t\trequire((reserve0 != reserve3) && (reserve1 != reserve4), \"No liquidity change in your token's pool\");\n\n\t\t// Checking your token balance after calling the exercice\n\t\tuint endTokenBalance = studentErc20[msg.sender].balanceOf(address(studentExercice[msg.sender]));\n\t\trequire(initTokenBalance != endTokenBalance, \"You still have the same amount of your tokens\");\n\t\tuint endDummyBalance = dummyToken.balanceOf(address(studentExercice[msg.sender]));\n\t\trequire(initDummyBalance != endDummyBalance, \"You still have the same amount of dummy tokens\");\n\n\t\t// Crediting points\n\t\tif (!exerciceProgression[msg.sender][9])\n\t\t{\n\t\t\texerciceProgression[msg.sender][9] = true;\n\t\t\t// Creating ERC20\n\t\t\tTDAMM.distributeTokens(msg.sender, 2);\n\t\t}\n\n\t}\n\tfunction ex10_contractCanProvideLiquidity()\n\tpublic\n\t{\n\t\t// Retrieving address of pair from library\n\t\t(address token0, address token1) = address(studentErc20[msg.sender]) < WETH ? (address(studentErc20[msg.sender]), WETH) : (WETH, address(studentErc20[msg.sender]));\n\t\taddress studentTokenAndWethPair = uniswapV2Factory.getPair(token0, token1);\n\n\t\t// Checking pair balance before calling exercice contract\n\t\tIUniswapV2Pair studentTokenAndWethPairInstance = IUniswapV2Pair(studentTokenAndWethPair);\n\t\t(uint112 reserve0, uint112 reserve1, ) = studentTokenAndWethPairInstance.getReserves();\n\n\t\t// Calling student contract to tell him to provide liquidity\n\t\tstudentExercice[msg.sender].addLiquidity();\n\n\t\t// Checking pair balance after calling exercice contract\n\t\t(uint112 reserve3, uint112 reserve4,) = studentTokenAndWethPairInstance.getReserves();\n\n\t\trequire((reserve0 < reserve3) && (reserve1 < reserve4), \"No liquidity change in your token's pool\");\n\n\t\t// Crediting points\n\t\tif (!exerciceProgression[msg.sender][10])\n\t\t{\n\t\t\texerciceProgression[msg.sender][10] = true;\n\t\t\t// Creating ERC20\n\t\t\tTDAMM.distributeTokens(msg.sender, 2);\n\t\t}\n\n\t}\n\n\tfunction ex11_contractCanWithdrawLiquidity()\n\tpublic\n\t{\n\t\t// Retrieving address of pair from library\n\t\t(address token0, address token1) = address(studentErc20[msg.sender]) < WETH ? (address(studentErc20[msg.sender]), WETH) : (WETH, address(studentErc20[msg.sender]));\n\t\taddress studentTokenAndWethPair = uniswapV2Factory.getPair(token0, token1);\n\n\t\t// Checking pair balance before calling exercice contract\n\t\tIUniswapV2Pair studentTokenAndWethPairInstance = IUniswapV2Pair(studentTokenAndWethPair);\n\t\t(uint112 reserve0, uint112 reserve1, ) = studentTokenAndWethPairInstance.getReserves();\n\n\t\t// Calling student contract to tell him to provide liquidity\n\t\tstudentExercice[msg.sender].withdrawLiquidity();\n\n\t\t// Checking pair balance after calling exercice contract\n\t\t(uint112 reserve3, uint112 reserve4,) = studentTokenAndWethPairInstance.getReserves();\n\n\t\trequire((reserve0 > reserve3) && (reserve1 > reserve4), \"No liquidity change in your token's pool\");\n\n\t\t// Crediting points\n\t\tif (!exerciceProgression[msg.sender][11])\n\t\t{\n\t\t\texerciceProgression[msg.sender][11] = true;\n\t\t\t// Creating ERC20\n\t\t\tTDAMM.distributeTokens(msg.sender, 2);\n\t\t}\n\n\t}\n\n\n\tmodifier onlyTeachers() \n\t{\n\n\t    require(TDAMM.teachers(msg.sender));\n\t    _;\n\t}\n\n\tfunction submitExercice(IExerciceSolution studentExercice_)\n\tpublic\n\t{\n\t\t// Checking this contract was not used by another group before\n\t\trequire(!hasBeenPaired[address(studentExercice_)]);\n\n\t\t// Assigning passed ERC20 as student ERC20\n\t\tstudentExercice[msg.sender] = studentExercice_;\n\t\thasBeenPaired[address(studentExercice_)] = true;\n\t\t\t\n\t}\n\n\tfunction submitErc20(IRichERC20 studentErc20_)\n\tpublic\n\t{\n\t\t// Checking this contract was not used by another group before\n\t\trequire(!hasBeenPaired[address(studentErc20_)]);\n\t\t// Assigning passed ERC20 as student ERC20\n\t\tstudentErc20[msg.sender] = studentErc20_;\n\t\thasBeenPaired[address(studentErc20_)] = true;\n\t\t\t\n\t}\n\n\tfunction _compareStrings(string memory a, string memory b) \n\tinternal \n\tpure \n\treturns (bool) \n\t{\n    \treturn (keccak256(abi.encodePacked((a))) == keccak256(abi.encodePacked((b))));\n\t}\n\n\tfunction bytes32ToString(bytes32 _bytes32) \n\tpublic \n\tpure returns (string memory) \n\t{\n        uint8 i = 0;\n        while(i < 32 && _bytes32[i] != 0) {\n            i++;\n        }\n        bytes memory bytesArray = new bytes(i);\n        for (i = 0; i < 32 && _bytes32[i] != 0; i++) {\n            bytesArray[i] = _bytes32[i];\n        }\n        return string(bytesArray);\n    }\n\n\tfunction readTicker(address studentAddres)\n\tpublic\n\tview\n\treturns(string memory)\n\t{\n\t\treturn assignedTicker[studentAddres];\n\t}\n\n\tfunction readSupply(address studentAddres)\n\tpublic\n\tview\n\treturns(uint256)\n\t{\n\t\treturn assignedSupply[studentAddres];\n\t}\n\n\tfunction setRandomTickersAndSupply(uint256[20] memory _randomSupplies, string[20] memory _randomTickers) \n\tpublic \n\tonlyTeachers\n\t{\n\t\trandomSupplies = _randomSupplies;\n\t\trandomTickers = _randomTickers;\n\t\tnextValueStoreRank = 0;\n\t\tfor (uint i = 0; i < 20; i++)\n\t\t{\n\t\t\temit newRandomTickerAndSupply(randomTickers[i], randomSupplies[i]);\n\t\t}\n\t}\n\n\n\n\n}\n",
  "sourcePath": "C:\\Users\\Martin\\Documents\\automated-market-maker-main\\amm-101-main\\contracts\\Evaluator.sol",
  "compiler": {
    "name": "solc",
    "version": "0.6.6+commit.6c089d02.Emscripten.clang"
  },
  "schemaVersion": "3.4.3",
  "updatedAt": "2022-02-10T10:45:22.371Z",
  "devdoc": {
    "methods": {}
  },
  "userdoc": {
    "methods": {}
  }
}