{
  "contractName": "Swap",
  "abi": [
    {
      "inputs": [
        {
          "internalType": "contract IUniswapV2Router02",
          "name": "_uniRouter02",
          "type": "address"
        }
      ],
      "stateMutability": "payable",
      "type": "constructor"
    },
    {
      "stateMutability": "payable",
      "type": "fallback"
    },
    {
      "inputs": [],
      "name": "Weth",
      "outputs": [
        {
          "internalType": "address",
          "name": "",
          "type": "address"
        }
      ],
      "stateMutability": "view",
      "type": "function"
    },
    {
      "inputs": [
        {
          "internalType": "uint256",
          "name": "",
          "type": "uint256"
        }
      ],
      "name": "addressArray",
      "outputs": [
        {
          "internalType": "address",
          "name": "",
          "type": "address"
        }
      ],
      "stateMutability": "view",
      "type": "function"
    },
    {
      "inputs": [],
      "name": "deadline",
      "outputs": [
        {
          "internalType": "uint256",
          "name": "",
          "type": "uint256"
        }
      ],
      "stateMutability": "view",
      "type": "function"
    },
    {
      "inputs": [],
      "name": "dummyToken",
      "outputs": [
        {
          "internalType": "address",
          "name": "",
          "type": "address"
        }
      ],
      "stateMutability": "view",
      "type": "function"
    },
    {
      "inputs": [],
      "name": "myToken",
      "outputs": [
        {
          "internalType": "contract myERC20",
          "name": "",
          "type": "address"
        }
      ],
      "stateMutability": "view",
      "type": "function"
    },
    {
      "inputs": [],
      "name": "myTokenAdd",
      "outputs": [
        {
          "internalType": "address",
          "name": "",
          "type": "address"
        }
      ],
      "stateMutability": "view",
      "type": "function"
    },
    {
      "inputs": [],
      "name": "uniRouter02",
      "outputs": [
        {
          "internalType": "contract IUniswapV2Router02",
          "name": "",
          "type": "address"
        }
      ],
      "stateMutability": "view",
      "type": "function"
    },
    {
      "stateMutability": "payable",
      "type": "receive"
    },
    {
      "inputs": [],
      "name": "addLiquidity",
      "outputs": [],
      "stateMutability": "nonpayable",
      "type": "function"
    },
    {
      "inputs": [],
      "name": "withdrawLiquidity",
      "outputs": [],
      "stateMutability": "nonpayable",
      "type": "function"
    },
    {
      "inputs": [],
      "name": "swapYourTokenForDummyToken",
      "outputs": [],
      "stateMutability": "nonpayable",
      "type": "function"
    },
    {
      "inputs": [],
      "name": "swapYourTokenForEth",
      "outputs": [],
      "stateMutability": "nonpayable",
      "type": "function"
    }
  ],
  "bytecode": "0x6080604052604051610f47380380610f478339818101604052602081101561002657600080fd5b8101908080519060200190929190505050806000806101000a81548173ffffffffffffffffffffffffffffffffffffffff021916908373ffffffffffffffffffffffffffffffffffffffff160217905550739e9ba9c234f6b4f8b1852e0dff1dc71aba37d741600360006101000a81548173ffffffffffffffffffffffffffffffffffffffff021916908373ffffffffffffffffffffffffffffffffffffffff16021790555073c778417e063141139fce010982780140aa0cd5ab600460006101000a81548173ffffffffffffffffffffffffffffffffffffffff021916908373ffffffffffffffffffffffffffffffffffffffff16021790555073bc3b69d1abd5a39f55a9ba50c7a2add933952123600560006101000a81548173ffffffffffffffffffffffffffffffffffffffff021916908373ffffffffffffffffffffffffffffffffffffffff16021790555050610dc1806101866000396000f3fe6080604052600436106100a05760003560e01c80637c587b22116100645780637c587b22146102545780637ea382c11461026b578063855f488a14610282578063b8fcf937146102d9578063c4a8599314610330578063e8078d9414610347576100a7565b806302bd04ac146100a95780630f96cf341461010057806329dcb0cf1461017b578063349849a3146101a657806367479ec5146101fd576100a7565b366100a757005b005b3480156100b557600080fd5b506100be61035e565b604051808273ffffffffffffffffffffffffffffffffffffffff1673ffffffffffffffffffffffffffffffffffffffff16815260200191505060405180910390f35b34801561010c57600080fd5b506101396004803603602081101561012357600080fd5b8101908080359060200190929190505050610383565b604051808273ffffffffffffffffffffffffffffffffffffffff1673ffffffffffffffffffffffffffffffffffffffff16815260200191505060405180910390f35b34801561018757600080fd5b506101906103bf565b6040518082815260200191505060405180910390f35b3480156101b257600080fd5b506101bb6103c5565b604051808273ffffffffffffffffffffffffffffffffffffffff1673ffffffffffffffffffffffffffffffffffffffff16815260200191505060405180910390f35b34801561020957600080fd5b506102126103eb565b604051808273ffffffffffffffffffffffffffffffffffffffff1673ffffffffffffffffffffffffffffffffffffffff16815260200191505060405180910390f35b34801561026057600080fd5b50610269610411565b005b34801561027757600080fd5b50610280610733565b005b34801561028e57600080fd5b5061029761089c565b604051808273ffffffffffffffffffffffffffffffffffffffff1673ffffffffffffffffffffffffffffffffffffffff16815260200191505060405180910390f35b3480156102e557600080fd5b506102ee6108c2565b604051808273ffffffffffffffffffffffffffffffffffffffff1673ffffffffffffffffffffffffffffffffffffffff16815260200191505060405180910390f35b34801561033c57600080fd5b506103456108e8565b005b34801561035357600080fd5b5061035c610c0b565b005b6000809054906101000a900473ffffffffffffffffffffffffffffffffffffffff1681565b6002818154811061039057fe5b906000526020600020016000915054906101000a900473ffffffffffffffffffffffffffffffffffffffff1681565b60065481565b600460009054906101000a900473ffffffffffffffffffffffffffffffffffffffff1681565b600560009054906101000a900473ffffffffffffffffffffffffffffffffffffffff1681565b6002600360009054906101000a900473ffffffffffffffffffffffffffffffffffffffff169080600181540180825580915050600190039060005260206000200160009091909190916101000a81548173ffffffffffffffffffffffffffffffffffffffff021916908373ffffffffffffffffffffffffffffffffffffffff1602179055506002600560009054906101000a900473ffffffffffffffffffffffffffffffffffffffff169080600181540180825580915050600190039060005260206000200160009091909190916101000a81548173ffffffffffffffffffffffffffffffffffffffff021916908373ffffffffffffffffffffffffffffffffffffffff1602179055506000809054906101000a900473ffffffffffffffffffffffffffffffffffffffff1673ffffffffffffffffffffffffffffffffffffffff166338ed1739678ac7230489e8000060006002306006546040518663ffffffff1660e01b815260040180868152602001858152602001806020018473ffffffffffffffffffffffffffffffffffffffff1673ffffffffffffffffffffffffffffffffffffffff168152602001838152602001828103825285818154815260200191508054801561063757602002820191906000526020600020905b8160009054906101000a900473ffffffffffffffffffffffffffffffffffffffff1673ffffffffffffffffffffffffffffffffffffffff16815260200190600101908083116105ed575b50509650505050505050600060405180830381600087803b15801561065b57600080fd5b505af115801561066f573d6000803e3d6000fd5b505050506040513d6000823e3d601f19601f82011682018060405250602081101561069957600080fd5b81019080805160405193929190846401000000008211156106b957600080fd5b838201915060208201858111156106cf57600080fd5b82518660208202830111640100000000821117156106ec57600080fd5b8083526020830192505050908051906020019060200280838360005b83811015610723578082015181840152602081019050610708565b5050505090500160405250505050565b6000809054906101000a900473ffffffffffffffffffffffffffffffffffffffff1673ffffffffffffffffffffffffffffffffffffffff166302751cec600360009054906101000a900473ffffffffffffffffffffffffffffffffffffffff16678ac7230489e80000600080306006546040518763ffffffff1660e01b8152600401808773ffffffffffffffffffffffffffffffffffffffff1673ffffffffffffffffffffffffffffffffffffffff1681526020018681526020018581526020018481526020018373ffffffffffffffffffffffffffffffffffffffff1673ffffffffffffffffffffffffffffffffffffffff16815260200182815260200196505050505050506040805180830381600087803b15801561085357600080fd5b505af1158015610867573d6000803e3d6000fd5b505050506040513d604081101561087d57600080fd5b8101908080519060200190929190805190602001909291905050505050565b600360009054906101000a900473ffffffffffffffffffffffffffffffffffffffff1681565b600160009054906101000a900473ffffffffffffffffffffffffffffffffffffffff1681565b6002600360009054906101000a900473ffffffffffffffffffffffffffffffffffffffff169080600181540180825580915050600190039060005260206000200160009091909190916101000a81548173ffffffffffffffffffffffffffffffffffffffff021916908373ffffffffffffffffffffffffffffffffffffffff1602179055506002600460009054906101000a900473ffffffffffffffffffffffffffffffffffffffff169080600181540180825580915050600190039060005260206000200160009091909190916101000a81548173ffffffffffffffffffffffffffffffffffffffff021916908373ffffffffffffffffffffffffffffffffffffffff1602179055506000809054906101000a900473ffffffffffffffffffffffffffffffffffffffff1673ffffffffffffffffffffffffffffffffffffffff166318cbafe568056bc75e2d6310000060006002306006546040518663ffffffff1660e01b815260040180868152602001858152602001806020018473ffffffffffffffffffffffffffffffffffffffff1673ffffffffffffffffffffffffffffffffffffffff1681526020018381526020018281038252858181548152602001915080548015610b0f57602002820191906000526020600020905b8160009054906101000a900473ffffffffffffffffffffffffffffffffffffffff1673ffffffffffffffffffffffffffffffffffffffff1681526020019060010190808311610ac5575b50509650505050505050600060405180830381600087803b158015610b3357600080fd5b505af1158015610b47573d6000803e3d6000fd5b505050506040513d6000823e3d601f19601f820116820180604052506020811015610b7157600080fd5b8101908080516040519392919084640100000000821115610b9157600080fd5b83820191506020820185811115610ba757600080fd5b8251866020820283011164010000000082111715610bc457600080fd5b8083526020830192505050908051906020019060200280838360005b83811015610bfb578082015181840152602081019050610be0565b5050505090500160405250505050565b6000809054906101000a900473ffffffffffffffffffffffffffffffffffffffff1673ffffffffffffffffffffffffffffffffffffffff1663f305d719600360009054906101000a900473ffffffffffffffffffffffffffffffffffffffff16683635c9adc5dea00000600180306b204fce5e3e2502610fffffff6040518763ffffffff1660e01b8152600401808773ffffffffffffffffffffffffffffffffffffffff1673ffffffffffffffffffffffffffffffffffffffff1681526020018681526020018581526020018481526020018373ffffffffffffffffffffffffffffffffffffffff1673ffffffffffffffffffffffffffffffffffffffff1681526020018281526020019650505050505050606060405180830381600087803b158015610d3757600080fd5b505af1158015610d4b573d6000803e3d6000fd5b505050506040513d6060811015610d6157600080fd5b8101908080519060200190929190805190602001909291908051906020019092919050505050505056fea2646970667358221220b2d20526ab89a1b86239a2935bf4dea1101dfce9b75ad7d81ad40191aa81cb3564736f6c63430006060033",
  "immutableReferences": {},
  "source": "pragma solidity >=0.6.2 <0.9.0;\r\nimport \"./IUniswapV2Router02.sol\";\r\nimport \"@openzeppelin/contracts/token/ERC20/ERC20.sol\";\r\nimport \"./myERC20.sol\";\r\n\r\ncontract Swap {\r\n    IUniswapV2Router02 public uniRouter02;\r\n    myERC20 public myToken;\r\n    address[] public addressArray;\r\n    address public myTokenAdd;\r\n    address public Weth;\r\n    address public dummyToken;\r\n    uint256 public deadline;\r\n\r\n    constructor(IUniswapV2Router02 _uniRouter02) public payable  {\r\n            uniRouter02=_uniRouter02;\r\n            //myToken=_myToken;\r\n            myTokenAdd=0x9E9BA9C234F6B4f8B1852E0dFF1Dc71abA37d741;\r\n            Weth=0xc778417E063141139Fce010982780140Aa0cD5Ab;\r\n            dummyToken=0xbc3b69d1abD5A39f55a9Ba50C7a2aDd933952123; \r\n            //deadline=9999999999999999999999999999;\r\n            \r\n    }\r\n    fallback () external payable \r\n\t{}\r\n\r\n\treceive () external payable \r\n\t{}\r\n\r\n    function addLiquidity() external {\r\n        uniRouter02.addLiquidityETH(myTokenAdd, 1000*(10**18), 1, 1, address(this), 9999999999999999999999999999);\r\n    }\r\n\r\n\tfunction withdrawLiquidity() external{\r\n        uniRouter02.removeLiquidityETH(myTokenAdd, 10*(10**18),0, 0, address(this),deadline);\r\n    }\r\n\r\n\tfunction swapYourTokenForDummyToken() external{\r\n        addressArray.push(myTokenAdd);\r\n        addressArray.push(dummyToken);\r\n        uniRouter02.swapExactTokensForTokens(10*(10**18),0,addressArray,address(this),deadline);\r\n\r\n    }\r\n\r\n\tfunction swapYourTokenForEth() external{\r\n        addressArray.push(myTokenAdd);\r\n        addressArray.push(Weth);\r\n        uniRouter02.swapExactTokensForETH(100*(10**18), 0, addressArray,address(this),deadline);\r\n    }\r\n\r\n    \r\n}",
  "sourcePath": "C:\\Users\\Martin\\Documents\\automated-market-maker-main\\amm-101-main\\contracts\\Swap.sol",
  "compiler": {
    "name": "solc",
    "version": "0.6.6+commit.6c089d02.Emscripten.clang"
  },
  "schemaVersion": "3.4.3",
  "updatedAt": "2022-02-10T10:45:22.398Z",
  "devdoc": {
    "methods": {}
  },
  "userdoc": {
    "methods": {}
  }
}